:03000000020800F3
:0C080000787FE4F6D8FD758118020847E7
:100A5B002A00446F6F72204C6F636B656400446FA8
:100A6B006F7220756E6C6F636B65640077726F6E5F
:0B0A7B00672070617373776F72640076
:080B07000608313233343500D9
:090A86007F80120AF17F017E005D
:100A8F00E4FDFCC3ED9FEC9E5015E4FBFA0BBB009D
:0F0A9F00010ABA04F8BBFBF50DBD00010C80E4A1
:010AAE002225
:0B0AF100C290C291D2928FA0C292224C
:0B0AFC00D290C291D2928FA0C2922231
:100AAF007F30120A887F38120AF17F01120A8F7F76
:100ABF000C120AF17F01120A8F120AF1120A8F7FAC
:090ACF0010120AF17F01020A8FE6
:060A29007BFF7A0A795BF5
:100A2F008B168A178918AB16AA17A918120AD8603D
:100A3F001A0518E5187002051714F9120AD8FF7E67
:0C0A4F0000120AFC7F01120A8F80DB22DB
:10097200D2B0D2B1D2B2D2B3C2B320B606740E2F65
:10098200F87631D2B3C2B220B606740E2FF876349E
:10099200D2B2C2B120B606740E2FF87637D2B1C2E7
:0D09A200B020B606740E2FF8762AD2B022CF
:1009AF00D2B0D2B1D2B2D2B3C2B320B506740E2F29
:1009BF00F87632D2B3C2B220B506740E2FF8763560
:1009CF00D2B2C2B120B506740E2FF87638D2B1C2AA
:0D09DF00B020B506740E2FF87630D2B0228D
:1009EC00D2B0D2B1D2B2D2B3C2B320B406740E2FED
:1009FC00F87633D2B3C2B220B406740E2FF8763622
:100A0C00D2B2C2B120B406740E2FF87639D2B1C26C
:0D0A1C00B020B406740E2FF87623D2B0225D
:10088C00C3E5139405E512648094805069C2B0C22C
:10089C00B1C2B2C2B320B61B120A29AF13AE1212E8
:1008AC0009727F647E00120A8F0513E51370D1055F
:1008BC001280CD20B51E120A8B120A29AF13AE126C
:1008CC001209AF7F647E00120A8F0513E51370B016
:1008DC00051280AC20B4A9120A8B120A29AF13AEF0
:1008EC00121209EC7F647E00120A8F0513E5137057
:0708FC008F051202088C2297
:10090300E4F514F515120AAF120A867BFF7A0A7909
:100913005D120A2FD2B4D2B5D2B67FC0120AF11239
:10092300088CE508650E7030E509650F702AE50A45
:1009330065107024E50B6511701EE50CB5121912D4
:100943000A867BFF7A0A7969120A2F7F647E001276
:100953000A8FC293D29480157FC0120A887BFF7AD4
:0F0963000A7977120A2F7F647E00120A8F80FEB6
:10080C00020903E493A3F8E493A34003F68001F2F6
:10081C0008DFF48029E493A3F85407240CC8C333ED
:10082C00C4540F4420C8834004F456800146F6DFBC
:10083C00E4800B0102040810204080900B07E47E3A
:10084C00019360BCA3FF543F30E509541FFEE493B1
:10085C00A360010ECF54C025E060A840B8E493A378
:10086C00FAE493A3F8E493A3C8C582C8CAC583CAA3
:10087C00F0A3C8C582C8CAC583CADFE9DEE780BE5B
:010B0F0000E5
:100AD800BB010689828A83E0225002E722BBFE021C
:090AE800E32289828A83E493224F
:00000001FF
